:020000023000CC
:10F8000002C01DC18BC1112444B7442391F0242FA1
:10F8100030E0C9018A709070029759F041FF02C030
:10F8200087EF84BF842F05D160E070E080E090E036
:10F8300075D185E08093810082E08093C00088E1EB
:10F840008093C10086E08093C20080E18093C40071
:10F850008EE0D9D0279A86E020E33CEF91E0309308
:10F8600085002093840096BBB09BFECF1F9AA8957D
:10F870008150A9F7AA24BB24BAD0813471F4B7D03F
:10F88000182FC7D0123811F482E005C0113811F4D6
:10F8900086E001C083E0A3D09FC0823411F484E1EC
:10F8A00003C0853419F485E0BCD096C08535B9F421
:10F8B0009ED0082F10E09BD090E0382F2227202BDD
:10F8C000312B37FF03C08BB7816002C08BB78E7FAF
:10F8D0008BBF8901000F111F9CD058017DC0863558
:10F8E00081F485D08D3449F482D01BB780D0880F45
:10F8F0001170182B1BBF81E001C083E092D080E023
:10F90000CACF843609F03AC072D090E0182F002791
:10F910006ED090E0082B192B6AD0D82EE801E12C8C
:10F92000B1E0FB2E64D0F70181937F012197D1F7DD
:10F9300070D0F5E4DF1609F4FFCFC50163E040E0C5
:10F9400050E07DD07501C0E0D1E0888190E0498130
:10F9500050E0542F4427482B592B2296C70161E0D1
:10F960006ED082E090E0E80EF91E0250104069F778
:10F97000C50165E040E050E062D02EC08437F1F46C
:10F9800036D090E0D82FCC2732D090E0C82BD92B9E
:10F990002ED0182F3ED0153449F48501C8010F5FD1
:10F9A0001F4FA2D11CD02197C9F716C08501F801BD
:10F9B00087918F0114D02197D1F70EC0853739F484
:10F9C00028D08EE10CD088E90AD081E064CF81355F
:10F9D00011F488E018D01DD080E101D04DCF982FD0
:10F9E0008091C00085FFFCCF9093C6000895809160
:10F9F000C00087FFFCCF8091C00084FD01C0A895A6
:10FA00008091C6000895E0E6F0E098E1908380835D
:10FA10000895EDDF803219F088E0F5DFFFCF84E153
:10FA2000DECF1F93182FE3DF1150E9F7F2DF1F91AC
:10FA30000895282E80E0E7DFE0E0FF270994FC012D
:10FA40000A0167BFE895112407B600FCFDCF667078
:10FA500029F0452B19F481E187BFE89508958EBD03
:10FA60000DB407FEFDCF8EB50895CF93DF93EC0163
:10FA7000289883E08EBD0DB407FEFDCF8EB528819A
:10FA800039814A815B81CA01AA27BB278EBD0DB48B
:10FA900007FEFDCF8EB5BB27A52F942F832F8EBDDC
:10FAA0000DB407FEFDCF8EB52EBD0DB407FEFDCF04
:10FAB0008EB51EBC0DB407FEFDCF8EB51EBC0DB4B9
:10FAC00007FEFDCF2EB5FB012083322F3C5F91E076
:10FAD0000BC01EBC0DB407FEFDCF8EB5FB01E90FB8
:10FAE000F11D80839F5F3150332399F72B5F30E006
:10FAF00040E050E02E5F3F4F4F4F5F4F888199812C
:10FB0000AA81BB81820F931FA41FB51F888399838D
:10FB1000AA83BB83289ADF91CF9108952F923F92B9
:10FB20004F925F926F927F928F929F92AF92BF920D
:10FB3000CF92DF92EF92FF920F931F93DF93CF93B9
:10FB4000CDB7DEB7C855D0400FB6F894DEBF0FBEB4
:10FB5000CDBF65966CAF7DAF8EAF9FAF65971BBE77
:10FB6000222433242101AA24BB24650169961FAEF7
:10FB70006997E980FA800F811885CE018F5A9F4FCF
:10FB8000B70173DF0130110509F48FC00230110590
:10FB900009F49DC00115110581F78D8190E0A0E069
:10FBA000B0E0EE24F82E092F1A2F8B8190E0A0E010
:10FBB000B0E0E82AF92A0A2B1B2BE20CF31C041DE7
:10FBC000151D24E068962FAF689765C0612C7FEF04
:10FBD000772E7FEF872E7FEF972E6E207F2080225B
:10FBE0009122A614B704C804D90499F069963FADD0
:10FBF0006997332351F0C50163E040E050E01FDF17
:10FC0000C50165E040E050E01ADFC401AA27BB2728
:10FC10008BBF68968FAD6897E82FF0E03196EE0FB6
:10FC2000FF1FA1E0B0E0AC0FBD1FEA0FFB1F8081FA
:10FC300090E0982F88276896BFAD6897BF5FEB2F3D
:10FC4000F0E0EE0FFF1F21E030E02C0F3D1FE20F30
:10FC5000F31F408150E0482B592BBF5F6896BFAF20
:10FC6000689767968EAD9FAD679702979A83898351
:10FC7000C7018219930961E0E2DE82E090E0A0E032
:10FC8000B0E0E80EF91E0A1F1B1F91E069969FAFB6
:10FC9000699764015301A981BA816796BFAFAEAF7E
:10FCA0006797AB2B09F092CF64CF6996BFAD699788
:10FCB000BB2351F0C50163E040E050E0C0DEC50168
:10FCC00065E040E050E0BBDE81E0B3DE52CF8985E5
:10FCD000282E3324442455242CE0220C331C441CAD
:10FCE000551C2A95D1F745CFF999FECF92BD81BD1C
:08FCF000F89A992780B50895E8
:02FFFE000206F9
:040000033000F800D1
:00000001FF
