:103E000001C0E3C0112444B7442369F0242F30E0FB
:103E1000C9018A709070029731F041FF02C087EFAC
:103E200084BF842FCCD085E08093810082E0809392
:103E3000C00088E18093C10086E08093C20088E0E2
:103E40008093C4008EE0A5D0259A86E028E13EEF5D
:103E500091E0309385002093840096BBB09BFECF09
:103E60001D9AA8958150A9F7CC24DD2486D08134F1
:103E700069F483D0182F93D0123811F482E004C073
:103E8000113809F468C083E070D06CC0823411F43A
:103E900084E103C0853419F485E089D063C0853599
:103EA00079F46BD0E82EFF2468D0082F10E0102F93
:103EB00000270E291F29000F111F71D0680152C061
:103EC000863521F484E073D080E0DECF843669F556
:103ED00054D053D0E82E51D0182FC0E0D1E04DD0AF
:103EE0008993EC16E1F75BD0153409F4FFCFC601D6
:103EF00063E040E050E069D08601C0E0D1E0888115
:103F000090E0498150E0542F4427482B592B2296AA
:103F1000C80161E05AD00E5F1F4FEC1681F7C60151
:103F200065E040E050E051D01DC0843769F425D0F1
:103F300024D0E82E22D033D0E601FE018591EF0196
:103F400014D0EA94D1F70EC0853739F428D08EE129
:103F50000CD084E90AD086E097CF813511F488E04F
:103F600018D01DD080E101D081CF982F8091C00062
:103F700085FFFCCF9093C60008958091C00087FF15
:103F8000FCCF8091C00084FD01C0A8958091C6003F
:103F90000895E0E6F0E098E1908380830895EDDFF6
:103FA000803219F088E0F5DFFFCF84E1DECF1F9388
:103FB000182FE3DF1150E9F7F2DF1F910895282E43
:103FC00080E0E7DFE0E0FF270994FC010A0167BF1A
:103FD000E895112407B600FCFDCF667029F0452B4B
:0A3FE00019F481E187BFE895089508
:023FFE000206B9
:0400000300003E00BB
:00000001FF
